{
  "_format": "hh-sol-artifact-1",
  "contractName": "StakingContract",
  "sourceName": "contracts/StakingContract.sol",
  "abi": [
    {
      "inputs": [
        {
          "internalType": "uint256",
          "name": "initialSupply",
          "type": "uint256"
        }
      ],
      "stateMutability": "nonpayable",
      "type": "constructor"
    },
    {
      "inputs": [],
      "name": "StakingContract__IncorrectNumberOfAmounts",
      "type": "error"
    },
    {
      "inputs": [],
      "name": "StakingContract__NoStakedBalance",
      "type": "error"
    },
    {
      "anonymous": false,
      "inputs": [
        {
          "indexed": true,
          "internalType": "address",
          "name": "owner",
          "type": "address"
        },
        {
          "indexed": true,
          "internalType": "address",
          "name": "spender",
          "type": "address"
        },
        {
          "indexed": false,
          "internalType": "uint256",
          "name": "value",
          "type": "uint256"
        }
      ],
      "name": "Approval",
      "type": "event"
    },
    {
      "anonymous": false,
      "inputs": [
        {
          "indexed": true,
          "internalType": "address",
          "name": "from",
          "type": "address"
        },
        {
          "indexed": true,
          "internalType": "uint256",
          "name": "value",
          "type": "uint256"
        }
      ],
      "name": "Stakings",
      "type": "event"
    },
    {
      "anonymous": false,
      "inputs": [
        {
          "indexed": true,
          "internalType": "address",
          "name": "from",
          "type": "address"
        },
        {
          "indexed": true,
          "internalType": "address",
          "name": "to",
          "type": "address"
        },
        {
          "indexed": false,
          "internalType": "uint256",
          "name": "value",
          "type": "uint256"
        }
      ],
      "name": "Transfer",
      "type": "event"
    },
    {
      "inputs": [
        {
          "internalType": "address",
          "name": "owner",
          "type": "address"
        },
        {
          "internalType": "address",
          "name": "spender",
          "type": "address"
        }
      ],
      "name": "allowance",
      "outputs": [
        {
          "internalType": "uint256",
          "name": "",
          "type": "uint256"
        }
      ],
      "stateMutability": "view",
      "type": "function"
    },
    {
      "inputs": [
        {
          "internalType": "address",
          "name": "spender",
          "type": "address"
        },
        {
          "internalType": "uint256",
          "name": "amount",
          "type": "uint256"
        }
      ],
      "name": "approve",
      "outputs": [
        {
          "internalType": "bool",
          "name": "",
          "type": "bool"
        }
      ],
      "stateMutability": "nonpayable",
      "type": "function"
    },
    {
      "inputs": [
        {
          "internalType": "address",
          "name": "account",
          "type": "address"
        }
      ],
      "name": "balanceOf",
      "outputs": [
        {
          "internalType": "uint256",
          "name": "",
          "type": "uint256"
        }
      ],
      "stateMutability": "view",
      "type": "function"
    },
    {
      "inputs": [],
      "name": "decimals",
      "outputs": [
        {
          "internalType": "uint8",
          "name": "",
          "type": "uint8"
        }
      ],
      "stateMutability": "view",
      "type": "function"
    },
    {
      "inputs": [
        {
          "internalType": "address",
          "name": "spender",
          "type": "address"
        },
        {
          "internalType": "uint256",
          "name": "subtractedValue",
          "type": "uint256"
        }
      ],
      "name": "decreaseAllowance",
      "outputs": [
        {
          "internalType": "bool",
          "name": "",
          "type": "bool"
        }
      ],
      "stateMutability": "nonpayable",
      "type": "function"
    },
    {
      "inputs": [],
      "name": "harvest",
      "outputs": [],
      "stateMutability": "nonpayable",
      "type": "function"
    },
    {
      "inputs": [
        {
          "internalType": "address",
          "name": "spender",
          "type": "address"
        },
        {
          "internalType": "uint256",
          "name": "addedValue",
          "type": "uint256"
        }
      ],
      "name": "increaseAllowance",
      "outputs": [
        {
          "internalType": "bool",
          "name": "",
          "type": "bool"
        }
      ],
      "stateMutability": "nonpayable",
      "type": "function"
    },
    {
      "inputs": [],
      "name": "makeReward",
      "outputs": [],
      "stateMutability": "nonpayable",
      "type": "function"
    },
    {
      "inputs": [],
      "name": "name",
      "outputs": [
        {
          "internalType": "string",
          "name": "",
          "type": "string"
        }
      ],
      "stateMutability": "view",
      "type": "function"
    },
    {
      "inputs": [],
      "name": "s_rewards",
      "outputs": [
        {
          "internalType": "uint256",
          "name": "",
          "type": "uint256"
        }
      ],
      "stateMutability": "view",
      "type": "function"
    },
    {
      "inputs": [
        {
          "internalType": "address",
          "name": "",
          "type": "address"
        }
      ],
      "name": "s_stakedBalanceOf",
      "outputs": [
        {
          "internalType": "uint256",
          "name": "",
          "type": "uint256"
        }
      ],
      "stateMutability": "view",
      "type": "function"
    },
    {
      "inputs": [
        {
          "internalType": "uint256",
          "name": "amount",
          "type": "uint256"
        }
      ],
      "name": "stake",
      "outputs": [],
      "stateMutability": "nonpayable",
      "type": "function"
    },
    {
      "inputs": [
        {
          "internalType": "address",
          "name": "_accountAddress",
          "type": "address"
        }
      ],
      "name": "stakedBalanceOf",
      "outputs": [
        {
          "internalType": "uint256",
          "name": "",
          "type": "uint256"
        }
      ],
      "stateMutability": "view",
      "type": "function"
    },
    {
      "inputs": [],
      "name": "symbol",
      "outputs": [
        {
          "internalType": "string",
          "name": "",
          "type": "string"
        }
      ],
      "stateMutability": "view",
      "type": "function"
    },
    {
      "inputs": [],
      "name": "totalSupply",
      "outputs": [
        {
          "internalType": "uint256",
          "name": "",
          "type": "uint256"
        }
      ],
      "stateMutability": "view",
      "type": "function"
    },
    {
      "inputs": [
        {
          "internalType": "address",
          "name": "to",
          "type": "address"
        },
        {
          "internalType": "uint256",
          "name": "amount",
          "type": "uint256"
        }
      ],
      "name": "transfer",
      "outputs": [
        {
          "internalType": "bool",
          "name": "",
          "type": "bool"
        }
      ],
      "stateMutability": "nonpayable",
      "type": "function"
    },
    {
      "inputs": [
        {
          "internalType": "address",
          "name": "from",
          "type": "address"
        },
        {
          "internalType": "address",
          "name": "to",
          "type": "address"
        },
        {
          "internalType": "uint256",
          "name": "amount",
          "type": "uint256"
        }
      ],
      "name": "transferFrom",
      "outputs": [
        {
          "internalType": "bool",
          "name": "",
          "type": "bool"
        }
      ],
      "stateMutability": "nonpayable",
      "type": "function"
    },
    {
      "inputs": [
        {
          "internalType": "uint256",
          "name": "amount",
          "type": "uint256"
        }
      ],
      "name": "unstake",
      "outputs": [],
      "stateMutability": "nonpayable",
      "type": "function"
    }
  ],
  "bytecode": "0x60806040523480156200001157600080fd5b50604051620022ac380380620022ac8339818101604052810190620000379190620002a4565b6040518060400160405280600c81526020017f4d794552433230546f6b656e00000000000000000000000000000000000000008152506040518060400160405280600381526020017f4d455400000000000000000000000000000000000000000000000000000000008152508160039081620000b4919062000546565b508060049081620000c6919062000546565b505050620000db3382620000e260201b60201c565b5062000748565b600073ffffffffffffffffffffffffffffffffffffffff168273ffffffffffffffffffffffffffffffffffffffff160362000154576040517f08c379a00000000000000000000000000000000000000000000000000000000081526004016200014b906200068e565b60405180910390fd5b62000168600083836200025a60201b60201c565b80600260008282546200017c9190620006df565b92505081905550806000808473ffffffffffffffffffffffffffffffffffffffff1673ffffffffffffffffffffffffffffffffffffffff1681526020019081526020016000206000828254620001d39190620006df565b925050819055508173ffffffffffffffffffffffffffffffffffffffff16600073ffffffffffffffffffffffffffffffffffffffff167fddf252ad1be2c89b69c2b068fc378daa952ba7f163c4a11628f55a4df523b3ef836040516200023a91906200072b565b60405180910390a362000256600083836200025f60201b60201c565b5050565b505050565b505050565b600080fd5b6000819050919050565b6200027e8162000269565b81146200028a57600080fd5b50565b6000815190506200029e8162000273565b92915050565b600060208284031215620002bd57620002bc62000264565b5b6000620002cd848285016200028d565b91505092915050565b600081519050919050565b7f4e487b7100000000000000000000000000000000000000000000000000000000600052604160045260246000fd5b7f4e487b7100000000000000000000000000000000000000000000000000000000600052602260045260246000fd5b600060028204905060018216806200035857607f821691505b6020821081036200036e576200036d62000310565b5b50919050565b60008190508160005260206000209050919050565b60006020601f8301049050919050565b600082821b905092915050565b600060088302620003d87fffffffffffffffffffffffffffffffffffffffffffffffffffffffffffffffff8262000399565b620003e4868362000399565b95508019841693508086168417925050509392505050565b6000819050919050565b600062000427620004216200041b8462000269565b620003fc565b62000269565b9050919050565b6000819050919050565b620004438362000406565b6200045b62000452826200042e565b848454620003a6565b825550505050565b600090565b6200047262000463565b6200047f81848462000438565b505050565b5b81811015620004a7576200049b60008262000468565b60018101905062000485565b5050565b601f821115620004f657620004c08162000374565b620004cb8462000389565b81016020851015620004db578190505b620004f3620004ea8562000389565b83018262000484565b50505b505050565b600082821c905092915050565b60006200051b60001984600802620004fb565b1980831691505092915050565b600062000536838362000508565b9150826002028217905092915050565b6200055182620002d6565b67ffffffffffffffff8111156200056d576200056c620002e1565b5b6200057982546200033f565b62000586828285620004ab565b600060209050601f831160018114620005be5760008415620005a9578287015190505b620005b5858262000528565b86555062000625565b601f198416620005ce8662000374565b60005b82811015620005f857848901518255600182019150602085019450602081019050620005d1565b8683101562000618578489015162000614601f89168262000508565b8355505b6001600288020188555050505b505050505050565b600082825260208201905092915050565b7f45524332303a206d696e7420746f20746865207a65726f206164647265737300600082015250565b600062000676601f836200062d565b915062000683826200063e565b602082019050919050565b60006020820190508181036000830152620006a98162000667565b9050919050565b7f4e487b7100000000000000000000000000000000000000000000000000000000600052601160045260246000fd5b6000620006ec8262000269565b9150620006f98362000269565b9250828201905080821115620007145762000713620006b0565b5b92915050565b620007258162000269565b82525050565b60006020820190506200074260008301846200071a565b92915050565b611b5480620007586000396000f3fe608060405234801561001057600080fd5b50600436106101165760003560e01c80634641257d116100a2578063a457c2d711610071578063a457c2d7146102e3578063a694fc3a14610313578063a9059cbb1461032f578063afb41dac1461035f578063dd62ed3e1461037d57610116565b80634641257d1461025b57806370a082311461026557806395ae01b11461029557806395d89b41146102c557610116565b806318160ddd116100e957806318160ddd146101a357806323b872dd146101c15780632e17de78146101f1578063313ce5671461020d578063395093511461022b57610116565b80630603bd301461011b57806306fdde0314610125578063095ea7b3146101435780631676539114610173575b600080fd5b6101236103ad565b005b61012d6104e8565b60405161013a91906112c2565b60405180910390f35b61015d6004803603810190610158919061137d565b61057a565b60405161016a91906113d8565b60405180910390f35b61018d600480360381019061018891906113f3565b61059d565b60405161019a919061142f565b60405180910390f35b6101ab6105e6565b6040516101b8919061142f565b60405180910390f35b6101db60048036038101906101d6919061144a565b6105f0565b6040516101e891906113d8565b60405180910390f35b61020b6004803603810190610206919061149d565b61061f565b005b610215610768565b60405161022291906114e6565b60405180910390f35b6102456004803603810190610240919061137d565b610771565b60405161025291906113d8565b60405180910390f35b6102636107a8565b005b61027f600480360381019061027a91906113f3565b61080a565b60405161028c919061142f565b60405180910390f35b6102af60048036038101906102aa91906113f3565b610852565b6040516102bc919061142f565b60405180910390f35b6102cd61086a565b6040516102da91906112c2565b60405180910390f35b6102fd60048036038101906102f8919061137d565b6108fc565b60405161030a91906113d8565b60405180910390f35b61032d6004803603810190610328919061149d565b610973565b005b6103496004803603810190610344919061137d565b610b3d565b60405161035691906113d8565b60405180910390f35b610367610b60565b604051610374919061142f565b60405180910390f35b61039760048036038101906103929190611501565b610b66565b6040516103a4919061142f565b60405180910390f35b6000600560003373ffffffffffffffffffffffffffffffffffffffff1673ffffffffffffffffffffffffffffffffffffffff1681526020019081526020016000205411610426576040517fc6e6f3b200000000000000000000000000000000000000000000000000000000815260040160405180910390fd5b6000600660003373ffffffffffffffffffffffffffffffffffffffff1673ffffffffffffffffffffffffffffffffffffffff16815260200190815260200160002054426104739190611570565b9050611c20600560003373ffffffffffffffffffffffffffffffffffffffff1673ffffffffffffffffffffffffffffffffffffffff16815260200190815260200160002054826104c391906115a4565b6104cd9190611615565b600760008282546104de9190611646565b9250508190555050565b6060600380546104f7906116a9565b80601f0160208091040260200160405190810160405280929190818152602001828054610523906116a9565b80156105705780601f1061054557610100808354040283529160200191610570565b820191906000526020600020905b81548152906001019060200180831161055357829003601f168201915b5050505050905090565b600080610585610bed565b9050610592818585610bf5565b600191505092915050565b6000600560008373ffffffffffffffffffffffffffffffffffffffff1673ffffffffffffffffffffffffffffffffffffffff168152602001908152602001600020549050919050565b6000600254905090565b6000806105fb610bed565b9050610608858285610dbe565b610613858585610e4a565b60019150509392505050565b60008111158061066d575080600560003373ffffffffffffffffffffffffffffffffffffffff1673ffffffffffffffffffffffffffffffffffffffff16815260200190815260200160002054105b156106a4576040517feea2ff3200000000000000000000000000000000000000000000000000000000815260040160405180910390fd5b6106ac6103ad565b6106b8336007546110c9565b6106c3303383610e4a565b600060078190555080600560003373ffffffffffffffffffffffffffffffffffffffff1673ffffffffffffffffffffffffffffffffffffffff168152602001908152602001600020600082825461071a9190611570565b9250508190555042600660003373ffffffffffffffffffffffffffffffffffffffff1673ffffffffffffffffffffffffffffffffffffffff1681526020019081526020016000208190555050565b60006012905090565b60008061077c610bed565b905061079d81858561078e8589610b66565b6107989190611646565b610bf5565b600191505092915050565b6107b06103ad565b6107bc336007546110c9565b600060078190555042600660003373ffffffffffffffffffffffffffffffffffffffff1673ffffffffffffffffffffffffffffffffffffffff16815260200190815260200160002081905550565b60008060008373ffffffffffffffffffffffffffffffffffffffff1673ffffffffffffffffffffffffffffffffffffffff168152602001908152602001600020549050919050565b60056020528060005260406000206000915090505481565b606060048054610879906116a9565b80601f01602080910402602001604051908101604052809291908181526020018280546108a5906116a9565b80156108f25780601f106108c7576101008083540402835291602001916108f2565b820191906000526020600020905b8154815290600101906020018083116108d557829003601f168201915b5050505050905090565b600080610907610bed565b905060006109158286610b66565b90508381101561095a576040517f08c379a00000000000000000000000000000000000000000000000000000000081526004016109519061174c565b60405180910390fd5b6109678286868403610bf5565b60019250505092915050565b60008111158061098a5750806109883361080a565b105b156109c1576040517feea2ff3200000000000000000000000000000000000000000000000000000000815260040160405180910390fd5b6109cc333083610e4a565b6000600560003373ffffffffffffffffffffffffffffffffffffffff1673ffffffffffffffffffffffffffffffffffffffff168152602001908152602001600020541115610a1d57610a1c6103ad565b5b42600660003373ffffffffffffffffffffffffffffffffffffffff1673ffffffffffffffffffffffffffffffffffffffff1681526020019081526020016000208190555080600560003373ffffffffffffffffffffffffffffffffffffffff1673ffffffffffffffffffffffffffffffffffffffff1681526020019081526020016000206000828254610ab09190611646565b92505081905550600560003373ffffffffffffffffffffffffffffffffffffffff1673ffffffffffffffffffffffffffffffffffffffff168152602001908152602001600020543373ffffffffffffffffffffffffffffffffffffffff167f11c479cdbe7c973bfbbecc8e254b0eb3d49dc965a730281ed76ae76c88ffd72d60405160405180910390a350565b600080610b48610bed565b9050610b55818585610e4a565b600191505092915050565b60075481565b6000600160008473ffffffffffffffffffffffffffffffffffffffff1673ffffffffffffffffffffffffffffffffffffffff16815260200190815260200160002060008373ffffffffffffffffffffffffffffffffffffffff1673ffffffffffffffffffffffffffffffffffffffff16815260200190815260200160002054905092915050565b600033905090565b600073ffffffffffffffffffffffffffffffffffffffff168373ffffffffffffffffffffffffffffffffffffffff1603610c64576040517f08c379a0000000000000000000000000000000000000000000000000000000008152600401610c5b906117de565b60405180910390fd5b600073ffffffffffffffffffffffffffffffffffffffff168273ffffffffffffffffffffffffffffffffffffffff1603610cd3576040517f08c379a0000000000000000000000000000000000000000000000000000000008152600401610cca90611870565b60405180910390fd5b80600160008573ffffffffffffffffffffffffffffffffffffffff1673ffffffffffffffffffffffffffffffffffffffff16815260200190815260200160002060008473ffffffffffffffffffffffffffffffffffffffff1673ffffffffffffffffffffffffffffffffffffffff168152602001908152602001600020819055508173ffffffffffffffffffffffffffffffffffffffff168373ffffffffffffffffffffffffffffffffffffffff167f8c5be1e5ebec7d5bd14f71427d1e84f3dd0314c0f7b2291e5b200ac8c7c3b92583604051610db1919061142f565b60405180910390a3505050565b6000610dca8484610b66565b90507fffffffffffffffffffffffffffffffffffffffffffffffffffffffffffffffff8114610e445781811015610e36576040517f08c379a0000000000000000000000000000000000000000000000000000000008152600401610e2d906118dc565b60405180910390fd5b610e438484848403610bf5565b5b50505050565b600073ffffffffffffffffffffffffffffffffffffffff168373ffffffffffffffffffffffffffffffffffffffff1603610eb9576040517f08c379a0000000000000000000000000000000000000000000000000000000008152600401610eb09061196e565b60405180910390fd5b600073ffffffffffffffffffffffffffffffffffffffff168273ffffffffffffffffffffffffffffffffffffffff1603610f28576040517f08c379a0000000000000000000000000000000000000000000000000000000008152600401610f1f90611a00565b60405180910390fd5b610f33838383611228565b60008060008573ffffffffffffffffffffffffffffffffffffffff1673ffffffffffffffffffffffffffffffffffffffff16815260200190815260200160002054905081811015610fb9576040517f08c379a0000000000000000000000000000000000000000000000000000000008152600401610fb090611a92565b60405180910390fd5b8181036000808673ffffffffffffffffffffffffffffffffffffffff1673ffffffffffffffffffffffffffffffffffffffff16815260200190815260200160002081905550816000808573ffffffffffffffffffffffffffffffffffffffff1673ffffffffffffffffffffffffffffffffffffffff168152602001908152602001600020600082825461104c9190611646565b925050819055508273ffffffffffffffffffffffffffffffffffffffff168473ffffffffffffffffffffffffffffffffffffffff167fddf252ad1be2c89b69c2b068fc378daa952ba7f163c4a11628f55a4df523b3ef846040516110b0919061142f565b60405180910390a36110c384848461122d565b50505050565b600073ffffffffffffffffffffffffffffffffffffffff168273ffffffffffffffffffffffffffffffffffffffff1603611138576040517f08c379a000000000000000000000000000000000000000000000000000000000815260040161112f90611afe565b60405180910390fd5b61114460008383611228565b80600260008282546111569190611646565b92505081905550806000808473ffffffffffffffffffffffffffffffffffffffff1673ffffffffffffffffffffffffffffffffffffffff16815260200190815260200160002060008282546111ab9190611646565b925050819055508173ffffffffffffffffffffffffffffffffffffffff16600073ffffffffffffffffffffffffffffffffffffffff167fddf252ad1be2c89b69c2b068fc378daa952ba7f163c4a11628f55a4df523b3ef83604051611210919061142f565b60405180910390a36112246000838361122d565b5050565b505050565b505050565b600081519050919050565b600082825260208201905092915050565b60005b8381101561126c578082015181840152602081019050611251565b60008484015250505050565b6000601f19601f8301169050919050565b600061129482611232565b61129e818561123d565b93506112ae81856020860161124e565b6112b781611278565b840191505092915050565b600060208201905081810360008301526112dc8184611289565b905092915050565b600080fd5b600073ffffffffffffffffffffffffffffffffffffffff82169050919050565b6000611314826112e9565b9050919050565b61132481611309565b811461132f57600080fd5b50565b6000813590506113418161131b565b92915050565b6000819050919050565b61135a81611347565b811461136557600080fd5b50565b60008135905061137781611351565b92915050565b60008060408385031215611394576113936112e4565b5b60006113a285828601611332565b92505060206113b385828601611368565b9150509250929050565b60008115159050919050565b6113d2816113bd565b82525050565b60006020820190506113ed60008301846113c9565b92915050565b600060208284031215611409576114086112e4565b5b600061141784828501611332565b91505092915050565b61142981611347565b82525050565b60006020820190506114446000830184611420565b92915050565b600080600060608486031215611463576114626112e4565b5b600061147186828701611332565b935050602061148286828701611332565b925050604061149386828701611368565b9150509250925092565b6000602082840312156114b3576114b26112e4565b5b60006114c184828501611368565b91505092915050565b600060ff82169050919050565b6114e0816114ca565b82525050565b60006020820190506114fb60008301846114d7565b92915050565b60008060408385031215611518576115176112e4565b5b600061152685828601611332565b925050602061153785828601611332565b9150509250929050565b7f4e487b7100000000000000000000000000000000000000000000000000000000600052601160045260246000fd5b600061157b82611347565b915061158683611347565b925082820390508181111561159e5761159d611541565b5b92915050565b60006115af82611347565b91506115ba83611347565b92508282026115c881611347565b915082820484148315176115df576115de611541565b5b5092915050565b7f4e487b7100000000000000000000000000000000000000000000000000000000600052601260045260246000fd5b600061162082611347565b915061162b83611347565b92508261163b5761163a6115e6565b5b828204905092915050565b600061165182611347565b915061165c83611347565b925082820190508082111561167457611673611541565b5b92915050565b7f4e487b7100000000000000000000000000000000000000000000000000000000600052602260045260246000fd5b600060028204905060018216806116c157607f821691505b6020821081036116d4576116d361167a565b5b50919050565b7f45524332303a2064656372656173656420616c6c6f77616e63652062656c6f7760008201527f207a65726f000000000000000000000000000000000000000000000000000000602082015250565b600061173660258361123d565b9150611741826116da565b604082019050919050565b6000602082019050818103600083015261176581611729565b9050919050565b7f45524332303a20617070726f76652066726f6d20746865207a65726f2061646460008201527f7265737300000000000000000000000000000000000000000000000000000000602082015250565b60006117c860248361123d565b91506117d38261176c565b604082019050919050565b600060208201905081810360008301526117f7816117bb565b9050919050565b7f45524332303a20617070726f766520746f20746865207a65726f20616464726560008201527f7373000000000000000000000000000000000000000000000000000000000000602082015250565b600061185a60228361123d565b9150611865826117fe565b604082019050919050565b600060208201905081810360008301526118898161184d565b9050919050565b7f45524332303a20696e73756666696369656e7420616c6c6f77616e6365000000600082015250565b60006118c6601d8361123d565b91506118d182611890565b602082019050919050565b600060208201905081810360008301526118f5816118b9565b9050919050565b7f45524332303a207472616e736665722066726f6d20746865207a65726f20616460008201527f6472657373000000000000000000000000000000000000000000000000000000602082015250565b600061195860258361123d565b9150611963826118fc565b604082019050919050565b600060208201905081810360008301526119878161194b565b9050919050565b7f45524332303a207472616e7366657220746f20746865207a65726f206164647260008201527f6573730000000000000000000000000000000000000000000000000000000000602082015250565b60006119ea60238361123d565b91506119f58261198e565b604082019050919050565b60006020820190508181036000830152611a19816119dd565b9050919050565b7f45524332303a207472616e7366657220616d6f756e742065786365656473206260008201527f616c616e63650000000000000000000000000000000000000000000000000000602082015250565b6000611a7c60268361123d565b9150611a8782611a20565b604082019050919050565b60006020820190508181036000830152611aab81611a6f565b9050919050565b7f45524332303a206d696e7420746f20746865207a65726f206164647265737300600082015250565b6000611ae8601f8361123d565b9150611af382611ab2565b602082019050919050565b60006020820190508181036000830152611b1781611adb565b905091905056fea2646970667358221220be399f12d1e7bd75d6560e200afb0f84dd523fc00dd74af3e8f91fcd8df9cd8164736f6c63430008110033",
  "linkReferences": {},
  "deployedLinkReferences": {}
}