{
  "_format": "hh-sol-artifact-1",
  "contractName": "StakingContract",
  "sourceName": "contracts/StakingContract.sol",
  "abi": [
    {
      "inputs": [
        {
          "internalType": "uint256",
          "name": "initialSupply",
          "type": "uint256"
        }
      ],
      "stateMutability": "nonpayable",
      "type": "constructor"
    },
    {
      "inputs": [],
      "name": "StakingContract__IncorrectNumberOfAmounts",
      "type": "error"
    },
    {
      "inputs": [],
      "name": "StakingContract__NoStakedBalance",
      "type": "error"
    },
    {
      "anonymous": false,
      "inputs": [
        {
          "indexed": true,
          "internalType": "address",
          "name": "owner",
          "type": "address"
        },
        {
          "indexed": true,
          "internalType": "address",
          "name": "spender",
          "type": "address"
        },
        {
          "indexed": false,
          "internalType": "uint256",
          "name": "value",
          "type": "uint256"
        }
      ],
      "name": "Approval",
      "type": "event"
    },
    {
      "anonymous": false,
      "inputs": [
        {
          "indexed": true,
          "internalType": "address",
          "name": "from",
          "type": "address"
        },
        {
          "indexed": true,
          "internalType": "uint256",
          "name": "value",
          "type": "uint256"
        }
      ],
      "name": "Stakings",
      "type": "event"
    },
    {
      "anonymous": false,
      "inputs": [
        {
          "indexed": true,
          "internalType": "address",
          "name": "from",
          "type": "address"
        },
        {
          "indexed": true,
          "internalType": "address",
          "name": "to",
          "type": "address"
        },
        {
          "indexed": false,
          "internalType": "uint256",
          "name": "value",
          "type": "uint256"
        }
      ],
      "name": "Transfer",
      "type": "event"
    },
    {
      "inputs": [
        {
          "internalType": "address",
          "name": "owner",
          "type": "address"
        },
        {
          "internalType": "address",
          "name": "spender",
          "type": "address"
        }
      ],
      "name": "allowance",
      "outputs": [
        {
          "internalType": "uint256",
          "name": "",
          "type": "uint256"
        }
      ],
      "stateMutability": "view",
      "type": "function"
    },
    {
      "inputs": [
        {
          "internalType": "address",
          "name": "spender",
          "type": "address"
        },
        {
          "internalType": "uint256",
          "name": "amount",
          "type": "uint256"
        }
      ],
      "name": "approve",
      "outputs": [
        {
          "internalType": "bool",
          "name": "",
          "type": "bool"
        }
      ],
      "stateMutability": "nonpayable",
      "type": "function"
    },
    {
      "inputs": [
        {
          "internalType": "address",
          "name": "account",
          "type": "address"
        }
      ],
      "name": "balanceOf",
      "outputs": [
        {
          "internalType": "uint256",
          "name": "",
          "type": "uint256"
        }
      ],
      "stateMutability": "view",
      "type": "function"
    },
    {
      "inputs": [],
      "name": "decimals",
      "outputs": [
        {
          "internalType": "uint8",
          "name": "",
          "type": "uint8"
        }
      ],
      "stateMutability": "view",
      "type": "function"
    },
    {
      "inputs": [
        {
          "internalType": "address",
          "name": "spender",
          "type": "address"
        },
        {
          "internalType": "uint256",
          "name": "subtractedValue",
          "type": "uint256"
        }
      ],
      "name": "decreaseAllowance",
      "outputs": [
        {
          "internalType": "bool",
          "name": "",
          "type": "bool"
        }
      ],
      "stateMutability": "nonpayable",
      "type": "function"
    },
    {
      "inputs": [],
      "name": "harvest",
      "outputs": [],
      "stateMutability": "nonpayable",
      "type": "function"
    },
    {
      "inputs": [
        {
          "internalType": "address",
          "name": "spender",
          "type": "address"
        },
        {
          "internalType": "uint256",
          "name": "addedValue",
          "type": "uint256"
        }
      ],
      "name": "increaseAllowance",
      "outputs": [
        {
          "internalType": "bool",
          "name": "",
          "type": "bool"
        }
      ],
      "stateMutability": "nonpayable",
      "type": "function"
    },
    {
      "inputs": [],
      "name": "makeReward",
      "outputs": [],
      "stateMutability": "nonpayable",
      "type": "function"
    },
    {
      "inputs": [],
      "name": "name",
      "outputs": [
        {
          "internalType": "string",
          "name": "",
          "type": "string"
        }
      ],
      "stateMutability": "view",
      "type": "function"
    },
    {
      "inputs": [],
      "name": "s_rewards",
      "outputs": [
        {
          "internalType": "uint256",
          "name": "",
          "type": "uint256"
        }
      ],
      "stateMutability": "view",
      "type": "function"
    },
    {
      "inputs": [
        {
          "internalType": "address",
          "name": "",
          "type": "address"
        }
      ],
      "name": "s_stakedBalanceOf",
      "outputs": [
        {
          "internalType": "uint256",
          "name": "",
          "type": "uint256"
        }
      ],
      "stateMutability": "view",
      "type": "function"
    },
    {
      "inputs": [
        {
          "internalType": "uint256",
          "name": "amount",
          "type": "uint256"
        }
      ],
      "name": "stake",
      "outputs": [],
      "stateMutability": "nonpayable",
      "type": "function"
    },
    {
      "inputs": [
        {
          "internalType": "address",
          "name": "_accountAddress",
          "type": "address"
        }
      ],
      "name": "stakedBalanceOf",
      "outputs": [
        {
          "internalType": "uint256",
          "name": "",
          "type": "uint256"
        }
      ],
      "stateMutability": "view",
      "type": "function"
    },
    {
      "inputs": [],
      "name": "symbol",
      "outputs": [
        {
          "internalType": "string",
          "name": "",
          "type": "string"
        }
      ],
      "stateMutability": "view",
      "type": "function"
    },
    {
      "inputs": [],
      "name": "totalSupply",
      "outputs": [
        {
          "internalType": "uint256",
          "name": "",
          "type": "uint256"
        }
      ],
      "stateMutability": "view",
      "type": "function"
    },
    {
      "inputs": [
        {
          "internalType": "address",
          "name": "to",
          "type": "address"
        },
        {
          "internalType": "uint256",
          "name": "amount",
          "type": "uint256"
        }
      ],
      "name": "transfer",
      "outputs": [
        {
          "internalType": "bool",
          "name": "",
          "type": "bool"
        }
      ],
      "stateMutability": "nonpayable",
      "type": "function"
    },
    {
      "inputs": [
        {
          "internalType": "address",
          "name": "from",
          "type": "address"
        },
        {
          "internalType": "address",
          "name": "to",
          "type": "address"
        },
        {
          "internalType": "uint256",
          "name": "amount",
          "type": "uint256"
        }
      ],
      "name": "transferFrom",
      "outputs": [
        {
          "internalType": "bool",
          "name": "",
          "type": "bool"
        }
      ],
      "stateMutability": "nonpayable",
      "type": "function"
    },
    {
      "inputs": [
        {
          "internalType": "uint256",
          "name": "amount",
          "type": "uint256"
        }
      ],
      "name": "unstake",
      "outputs": [],
      "stateMutability": "nonpayable",
      "type": "function"
    }
  ],
  "bytecode": "0x60806040523480156200001157600080fd5b506040516200228f3803806200228f833981810160405281019062000037919062000299565b6040518060400160405280600c81526020017f4d794552433230546f6b656e00000000000000000000000000000000000000008152506040518060400160405280600381526020017f4d455400000000000000000000000000000000000000000000000000000000008152508160039081620000b491906200053b565b508060049081620000c691906200053b565b505050620000db3382620000e260201b60201c565b506200073d565b600073ffffffffffffffffffffffffffffffffffffffff168273ffffffffffffffffffffffffffffffffffffffff160362000154576040517f08c379a00000000000000000000000000000000000000000000000000000000081526004016200014b9062000683565b60405180910390fd5b62000168600083836200024f60201b60201c565b80600260008282546200017c9190620006d4565b92505081905550806000808473ffffffffffffffffffffffffffffffffffffffff1673ffffffffffffffffffffffffffffffffffffffff168152602001908152602001600020600082825401925050819055508173ffffffffffffffffffffffffffffffffffffffff16600073ffffffffffffffffffffffffffffffffffffffff167fddf252ad1be2c89b69c2b068fc378daa952ba7f163c4a11628f55a4df523b3ef836040516200022f919062000720565b60405180910390a36200024b600083836200025460201b60201c565b5050565b505050565b505050565b600080fd5b6000819050919050565b62000273816200025e565b81146200027f57600080fd5b50565b600081519050620002938162000268565b92915050565b600060208284031215620002b257620002b162000259565b5b6000620002c28482850162000282565b91505092915050565b600081519050919050565b7f4e487b7100000000000000000000000000000000000000000000000000000000600052604160045260246000fd5b7f4e487b7100000000000000000000000000000000000000000000000000000000600052602260045260246000fd5b600060028204905060018216806200034d57607f821691505b60208210810362000363576200036262000305565b5b50919050565b60008190508160005260206000209050919050565b60006020601f8301049050919050565b600082821b905092915050565b600060088302620003cd7fffffffffffffffffffffffffffffffffffffffffffffffffffffffffffffffff826200038e565b620003d986836200038e565b95508019841693508086168417925050509392505050565b6000819050919050565b60006200041c6200041662000410846200025e565b620003f1565b6200025e565b9050919050565b6000819050919050565b6200043883620003fb565b62000450620004478262000423565b8484546200039b565b825550505050565b600090565b6200046762000458565b620004748184846200042d565b505050565b5b818110156200049c57620004906000826200045d565b6001810190506200047a565b5050565b601f821115620004eb57620004b58162000369565b620004c0846200037e565b81016020851015620004d0578190505b620004e8620004df856200037e565b83018262000479565b50505b505050565b600082821c905092915050565b60006200051060001984600802620004f0565b1980831691505092915050565b60006200052b8383620004fd565b9150826002028217905092915050565b6200054682620002cb565b67ffffffffffffffff811115620005625762000561620002d6565b5b6200056e825462000334565b6200057b828285620004a0565b600060209050601f831160018114620005b357600084156200059e578287015190505b620005aa85826200051d565b8655506200061a565b601f198416620005c38662000369565b60005b82811015620005ed57848901518255600182019150602085019450602081019050620005c6565b868310156200060d578489015162000609601f891682620004fd565b8355505b6001600288020188555050505b505050505050565b600082825260208201905092915050565b7f45524332303a206d696e7420746f20746865207a65726f206164647265737300600082015250565b60006200066b601f8362000622565b9150620006788262000633565b602082019050919050565b600060208201905081810360008301526200069e816200065c565b9050919050565b7f4e487b7100000000000000000000000000000000000000000000000000000000600052601160045260246000fd5b6000620006e1826200025e565b9150620006ee836200025e565b9250828201905080821115620007095762000708620006a5565b5b92915050565b6200071a816200025e565b82525050565b60006020820190506200073760008301846200070f565b92915050565b611b42806200074d6000396000f3fe608060405234801561001057600080fd5b50600436106101165760003560e01c80634641257d116100a2578063a457c2d711610071578063a457c2d7146102e3578063a694fc3a14610313578063a9059cbb1461032f578063afb41dac1461035f578063dd62ed3e1461037d57610116565b80634641257d1461025b57806370a082311461026557806395ae01b11461029557806395d89b41146102c557610116565b806318160ddd116100e957806318160ddd146101a357806323b872dd146101c15780632e17de78146101f1578063313ce5671461020d578063395093511461022b57610116565b80630603bd301461011b57806306fdde0314610125578063095ea7b3146101435780631676539114610173575b600080fd5b6101236103ad565b005b61012d6104e8565b60405161013a91906112b0565b60405180910390f35b61015d6004803603810190610158919061136b565b61057a565b60405161016a91906113c6565b60405180910390f35b61018d600480360381019061018891906113e1565b61059d565b60405161019a919061141d565b60405180910390f35b6101ab6105e6565b6040516101b8919061141d565b60405180910390f35b6101db60048036038101906101d69190611438565b6105f0565b6040516101e891906113c6565b60405180910390f35b61020b6004803603810190610206919061148b565b61061f565b005b610215610768565b60405161022291906114d4565b60405180910390f35b6102456004803603810190610240919061136b565b610771565b60405161025291906113c6565b60405180910390f35b6102636107a8565b005b61027f600480360381019061027a91906113e1565b61080a565b60405161028c919061141d565b60405180910390f35b6102af60048036038101906102aa91906113e1565b610852565b6040516102bc919061141d565b60405180910390f35b6102cd61086a565b6040516102da91906112b0565b60405180910390f35b6102fd60048036038101906102f8919061136b565b6108fc565b60405161030a91906113c6565b60405180910390f35b61032d6004803603810190610328919061148b565b610973565b005b6103496004803603810190610344919061136b565b610b3d565b60405161035691906113c6565b60405180910390f35b610367610b60565b604051610374919061141d565b60405180910390f35b610397600480360381019061039291906114ef565b610b66565b6040516103a4919061141d565b60405180910390f35b6000600560003373ffffffffffffffffffffffffffffffffffffffff1673ffffffffffffffffffffffffffffffffffffffff1681526020019081526020016000205411610426576040517fc6e6f3b200000000000000000000000000000000000000000000000000000000815260040160405180910390fd5b6000600660003373ffffffffffffffffffffffffffffffffffffffff1673ffffffffffffffffffffffffffffffffffffffff1681526020019081526020016000205442610473919061155e565b9050611c20600560003373ffffffffffffffffffffffffffffffffffffffff1673ffffffffffffffffffffffffffffffffffffffff16815260200190815260200160002054826104c39190611592565b6104cd9190611603565b600760008282546104de9190611634565b9250508190555050565b6060600380546104f790611697565b80601f016020809104026020016040519081016040528092919081815260200182805461052390611697565b80156105705780601f1061054557610100808354040283529160200191610570565b820191906000526020600020905b81548152906001019060200180831161055357829003601f168201915b5050505050905090565b600080610585610bed565b9050610592818585610bf5565b600191505092915050565b6000600560008373ffffffffffffffffffffffffffffffffffffffff1673ffffffffffffffffffffffffffffffffffffffff168152602001908152602001600020549050919050565b6000600254905090565b6000806105fb610bed565b9050610608858285610dbe565b610613858585610e4a565b60019150509392505050565b60008111158061066d575080600560003373ffffffffffffffffffffffffffffffffffffffff1673ffffffffffffffffffffffffffffffffffffffff16815260200190815260200160002054105b156106a4576040517feea2ff3200000000000000000000000000000000000000000000000000000000815260040160405180910390fd5b6106ac6103ad565b6106b8336007546110c0565b6106c3303383610e4a565b600060078190555080600560003373ffffffffffffffffffffffffffffffffffffffff1673ffffffffffffffffffffffffffffffffffffffff168152602001908152602001600020600082825461071a919061155e565b9250508190555042600660003373ffffffffffffffffffffffffffffffffffffffff1673ffffffffffffffffffffffffffffffffffffffff1681526020019081526020016000208190555050565b60006012905090565b60008061077c610bed565b905061079d81858561078e8589610b66565b6107989190611634565b610bf5565b600191505092915050565b6107b06103ad565b6107bc336007546110c0565b600060078190555042600660003373ffffffffffffffffffffffffffffffffffffffff1673ffffffffffffffffffffffffffffffffffffffff16815260200190815260200160002081905550565b60008060008373ffffffffffffffffffffffffffffffffffffffff1673ffffffffffffffffffffffffffffffffffffffff168152602001908152602001600020549050919050565b60056020528060005260406000206000915090505481565b60606004805461087990611697565b80601f01602080910402602001604051908101604052809291908181526020018280546108a590611697565b80156108f25780601f106108c7576101008083540402835291602001916108f2565b820191906000526020600020905b8154815290600101906020018083116108d557829003601f168201915b5050505050905090565b600080610907610bed565b905060006109158286610b66565b90508381101561095a576040517f08c379a00000000000000000000000000000000000000000000000000000000081526004016109519061173a565b60405180910390fd5b6109678286868403610bf5565b60019250505092915050565b60008111158061098a5750806109883361080a565b105b156109c1576040517feea2ff3200000000000000000000000000000000000000000000000000000000815260040160405180910390fd5b6109cc333083610e4a565b6000600560003373ffffffffffffffffffffffffffffffffffffffff1673ffffffffffffffffffffffffffffffffffffffff168152602001908152602001600020541115610a1d57610a1c6103ad565b5b42600660003373ffffffffffffffffffffffffffffffffffffffff1673ffffffffffffffffffffffffffffffffffffffff1681526020019081526020016000208190555080600560003373ffffffffffffffffffffffffffffffffffffffff1673ffffffffffffffffffffffffffffffffffffffff1681526020019081526020016000206000828254610ab09190611634565b92505081905550600560003373ffffffffffffffffffffffffffffffffffffffff1673ffffffffffffffffffffffffffffffffffffffff168152602001908152602001600020543373ffffffffffffffffffffffffffffffffffffffff167f11c479cdbe7c973bfbbecc8e254b0eb3d49dc965a730281ed76ae76c88ffd72d60405160405180910390a350565b600080610b48610bed565b9050610b55818585610e4a565b600191505092915050565b60075481565b6000600160008473ffffffffffffffffffffffffffffffffffffffff1673ffffffffffffffffffffffffffffffffffffffff16815260200190815260200160002060008373ffffffffffffffffffffffffffffffffffffffff1673ffffffffffffffffffffffffffffffffffffffff16815260200190815260200160002054905092915050565b600033905090565b600073ffffffffffffffffffffffffffffffffffffffff168373ffffffffffffffffffffffffffffffffffffffff1603610c64576040517f08c379a0000000000000000000000000000000000000000000000000000000008152600401610c5b906117cc565b60405180910390fd5b600073ffffffffffffffffffffffffffffffffffffffff168273ffffffffffffffffffffffffffffffffffffffff1603610cd3576040517f08c379a0000000000000000000000000000000000000000000000000000000008152600401610cca9061185e565b60405180910390fd5b80600160008573ffffffffffffffffffffffffffffffffffffffff1673ffffffffffffffffffffffffffffffffffffffff16815260200190815260200160002060008473ffffffffffffffffffffffffffffffffffffffff1673ffffffffffffffffffffffffffffffffffffffff168152602001908152602001600020819055508173ffffffffffffffffffffffffffffffffffffffff168373ffffffffffffffffffffffffffffffffffffffff167f8c5be1e5ebec7d5bd14f71427d1e84f3dd0314c0f7b2291e5b200ac8c7c3b92583604051610db1919061141d565b60405180910390a3505050565b6000610dca8484610b66565b90507fffffffffffffffffffffffffffffffffffffffffffffffffffffffffffffffff8114610e445781811015610e36576040517f08c379a0000000000000000000000000000000000000000000000000000000008152600401610e2d906118ca565b60405180910390fd5b610e438484848403610bf5565b5b50505050565b600073ffffffffffffffffffffffffffffffffffffffff168373ffffffffffffffffffffffffffffffffffffffff1603610eb9576040517f08c379a0000000000000000000000000000000000000000000000000000000008152600401610eb09061195c565b60405180910390fd5b600073ffffffffffffffffffffffffffffffffffffffff168273ffffffffffffffffffffffffffffffffffffffff1603610f28576040517f08c379a0000000000000000000000000000000000000000000000000000000008152600401610f1f906119ee565b60405180910390fd5b610f33838383611216565b60008060008573ffffffffffffffffffffffffffffffffffffffff1673ffffffffffffffffffffffffffffffffffffffff16815260200190815260200160002054905081811015610fb9576040517f08c379a0000000000000000000000000000000000000000000000000000000008152600401610fb090611a80565b60405180910390fd5b8181036000808673ffffffffffffffffffffffffffffffffffffffff1673ffffffffffffffffffffffffffffffffffffffff16815260200190815260200160002081905550816000808573ffffffffffffffffffffffffffffffffffffffff1673ffffffffffffffffffffffffffffffffffffffff168152602001908152602001600020600082825401925050819055508273ffffffffffffffffffffffffffffffffffffffff168473ffffffffffffffffffffffffffffffffffffffff167fddf252ad1be2c89b69c2b068fc378daa952ba7f163c4a11628f55a4df523b3ef846040516110a7919061141d565b60405180910390a36110ba84848461121b565b50505050565b600073ffffffffffffffffffffffffffffffffffffffff168273ffffffffffffffffffffffffffffffffffffffff160361112f576040517f08c379a000000000000000000000000000000000000000000000000000000000815260040161112690611aec565b60405180910390fd5b61113b60008383611216565b806002600082825461114d9190611634565b92505081905550806000808473ffffffffffffffffffffffffffffffffffffffff1673ffffffffffffffffffffffffffffffffffffffff168152602001908152602001600020600082825401925050819055508173ffffffffffffffffffffffffffffffffffffffff16600073ffffffffffffffffffffffffffffffffffffffff167fddf252ad1be2c89b69c2b068fc378daa952ba7f163c4a11628f55a4df523b3ef836040516111fe919061141d565b60405180910390a36112126000838361121b565b5050565b505050565b505050565b600081519050919050565b600082825260208201905092915050565b60005b8381101561125a57808201518184015260208101905061123f565b60008484015250505050565b6000601f19601f8301169050919050565b600061128282611220565b61128c818561122b565b935061129c81856020860161123c565b6112a581611266565b840191505092915050565b600060208201905081810360008301526112ca8184611277565b905092915050565b600080fd5b600073ffffffffffffffffffffffffffffffffffffffff82169050919050565b6000611302826112d7565b9050919050565b611312816112f7565b811461131d57600080fd5b50565b60008135905061132f81611309565b92915050565b6000819050919050565b61134881611335565b811461135357600080fd5b50565b6000813590506113658161133f565b92915050565b60008060408385031215611382576113816112d2565b5b600061139085828601611320565b92505060206113a185828601611356565b9150509250929050565b60008115159050919050565b6113c0816113ab565b82525050565b60006020820190506113db60008301846113b7565b92915050565b6000602082840312156113f7576113f66112d2565b5b600061140584828501611320565b91505092915050565b61141781611335565b82525050565b6000602082019050611432600083018461140e565b92915050565b600080600060608486031215611451576114506112d2565b5b600061145f86828701611320565b935050602061147086828701611320565b925050604061148186828701611356565b9150509250925092565b6000602082840312156114a1576114a06112d2565b5b60006114af84828501611356565b91505092915050565b600060ff82169050919050565b6114ce816114b8565b82525050565b60006020820190506114e960008301846114c5565b92915050565b60008060408385031215611506576115056112d2565b5b600061151485828601611320565b925050602061152585828601611320565b9150509250929050565b7f4e487b7100000000000000000000000000000000000000000000000000000000600052601160045260246000fd5b600061156982611335565b915061157483611335565b925082820390508181111561158c5761158b61152f565b5b92915050565b600061159d82611335565b91506115a883611335565b92508282026115b681611335565b915082820484148315176115cd576115cc61152f565b5b5092915050565b7f4e487b7100000000000000000000000000000000000000000000000000000000600052601260045260246000fd5b600061160e82611335565b915061161983611335565b925082611629576116286115d4565b5b828204905092915050565b600061163f82611335565b915061164a83611335565b92508282019050808211156116625761166161152f565b5b92915050565b7f4e487b7100000000000000000000000000000000000000000000000000000000600052602260045260246000fd5b600060028204905060018216806116af57607f821691505b6020821081036116c2576116c1611668565b5b50919050565b7f45524332303a2064656372656173656420616c6c6f77616e63652062656c6f7760008201527f207a65726f000000000000000000000000000000000000000000000000000000602082015250565b600061172460258361122b565b915061172f826116c8565b604082019050919050565b6000602082019050818103600083015261175381611717565b9050919050565b7f45524332303a20617070726f76652066726f6d20746865207a65726f2061646460008201527f7265737300000000000000000000000000000000000000000000000000000000602082015250565b60006117b660248361122b565b91506117c18261175a565b604082019050919050565b600060208201905081810360008301526117e5816117a9565b9050919050565b7f45524332303a20617070726f766520746f20746865207a65726f20616464726560008201527f7373000000000000000000000000000000000000000000000000000000000000602082015250565b600061184860228361122b565b9150611853826117ec565b604082019050919050565b600060208201905081810360008301526118778161183b565b9050919050565b7f45524332303a20696e73756666696369656e7420616c6c6f77616e6365000000600082015250565b60006118b4601d8361122b565b91506118bf8261187e565b602082019050919050565b600060208201905081810360008301526118e3816118a7565b9050919050565b7f45524332303a207472616e736665722066726f6d20746865207a65726f20616460008201527f6472657373000000000000000000000000000000000000000000000000000000602082015250565b600061194660258361122b565b9150611951826118ea565b604082019050919050565b6000602082019050818103600083015261197581611939565b9050919050565b7f45524332303a207472616e7366657220746f20746865207a65726f206164647260008201527f6573730000000000000000000000000000000000000000000000000000000000602082015250565b60006119d860238361122b565b91506119e38261197c565b604082019050919050565b60006020820190508181036000830152611a07816119cb565b9050919050565b7f45524332303a207472616e7366657220616d6f756e742065786365656473206260008201527f616c616e63650000000000000000000000000000000000000000000000000000602082015250565b6000611a6a60268361122b565b9150611a7582611a0e565b604082019050919050565b60006020820190508181036000830152611a9981611a5d565b9050919050565b7f45524332303a206d696e7420746f20746865207a65726f206164647265737300600082015250565b6000611ad6601f8361122b565b9150611ae182611aa0565b602082019050919050565b60006020820190508181036000830152611b0581611ac9565b905091905056fea264697066735822122079584307c1e4e346f27d09d7b684bdfeebe2e9b44fba78f1dc129e75cc96f19264736f6c63430008110033",
  "linkReferences": {},
  "deployedLinkReferences": {}
}